:10000000A9C20000E0C20000DEC20000DCC20000A5
:10001000DAC20000D8C20000D6C20000D4C200007C
:10002000D2C20000D0C200000C94C1260C948D27CF
:100030000C94A421C8C20000C6C20000C4C20000C3
:10004000C2C20000C0C20000BEC20000BCC20000AC
:10005000BAC200000C941B22B6C20000B4C2000059
:10006000B2C20000B0C20000AEC20000ACC20000CC
:10007000AAC20000A8C20000A6C20000A4C20000DC
:10008000A2C20000A0C200009EC200009CC20000EC
:100090009AC2000098C2000096C2000094C20000FC
:1000A00092C2000090C200008EC20000290014001D
:1000B0001A000800150017001C0018000C001200A0
:1000C00013002A002B0004001600070009000A0094
:1000D0000B000D000E000F0000002800E1001D00C5
:1000E0001B00060019000500110010003600520028
:1000F00000003700E000E300E2002C0000002C00CC
:10010000000021525000510000004F0035001E0039
:100110001F002000210022002300240025002600CB
:1001200027004C0001003A003B003C003D003E002F
:100130003F002D002E00330000003400010040007D
:100140004100420043004400450038002F004B00AE
:10015000000030000100010001000100000001006A
:10016000000001004A004E0000004D00007C01002C
:100170000100010001000100010001000100010077
:10018000010001000100027803780478057801007D
:1001900001000100010001000000010001002078C1
:1001A0002178237824782578267827782878010004
:1001B0000000010001000100010001000000010039
:1001C0000000010001000100000001000100010029
:1001D0000100010001000100010001000100010017
:1001E0000100010001000100010001000100010007
:1001F00001000100010001000000010001000100F8
:1002000001000100010001000100010001000100E6
:1002100000000100010001000100010000000100D8
:1002200000000100010001000000010000010101C7
:1002300001010101010102020202020202020203A3
:100240000303030303030304040404040404050573
:100250000505050606060606070707070708080836
:1002600008090909090A0A0A0B0B0B0C0C0C0D0DE5
:100270000D0E0E0E0F0F0F1010111111121213137D
:100280001414151516161717181819191A1A1B1BF6
:100290001C1D1D1E1E1F2020212222232424252652
:1002A00026272829292A2B2C2D2D2E2F303132328A
:1002B000333435363738393A3B3C3D3E3F40414296
:1002C000434445464748494A4C4D4E4F505153547C
:1002D000555658595A5B5D5E5F6162646566686930
:1002E0006B6C6D6F7072737577787A7B7D7E8082B0
:1002F000838587888A8C8E8F91939596989A9C9EF9
:10030000A0A2A3A5A7A9ABADAFB1B3B5B7BABCBE08
:10031000C0C2C4C6C9CBCDCFD1D4D6D8DBDDDFE2D5
:10032000E4E7E9EBEEF0F3F5F8FAFDFF000000007A
:10033000000000002A2B2800000000000000000040
:100340000000000000000029000000002C1E3420E6
:10035000212224342627252E362D3738271E1F200C
:100360002122232425263333362E37381F04050651
:100370000708090A0B0C0D0E0F1011121314151695
:100380001718191A1B1C1D2F3130232D3504050693
:100390000708090A0B0C0D0E0F1011121314151675
:1003A0001718191A1B1C1D2F3130354C0000000086
:1003B000000000000000000000000000000000003D
:1003C000000000000000000000000000000000002D
:1003D0007E0F00D4FFFFFFC7000000780C0342002F
:1003E0004D00340033004100000016034B00500064
:1003F000520065007000750062006C0069006300C7
:1004000000000403090409025B00030100A0FA09CB
:10041000040000010301010009211101000122442F
:100420000007058103080001090401000203000020
:10043000000921110100012222000705820320008A
:100440000107050303200001090402000103000065
:1004500000092111010001227B000705840320000F
:10046000011201000200000008504B606001000111
:100470000200010660FF0961A1010962150026FF63
:10048000009520750881020963150026FF0095205C
:1004900075089102C005010902A10185020901A1A7
:1004A0000005091901290815002501950875018124
:1004B000020501093009311581257F9502750881F2
:1004C0000609381581257F950175088106050C0AF6
:1004D00038021581257F950175088106C0C0050188
:1004E0000980A101850319012AB700150126B7006B
:1004F000950175108100C0050C0901A10185041941
:10050000012AA002150126A002950175108100C0E4
:1005100005010906A101050719E029E715002501D4
:10052000950875018102950175088101050719007B
:1005300029FF150026FF009506750881000508199A
:100540000129051500250195057501910295017593
:10055000039101C011241FBECFEFDAE0DEBFCDBF93
:1005600004B603FE19C08091B7029091B802A09121
:10057000B902B091BA028730904BA740B04B61F4FA
:100580001092B7021092B8021092B9021092BA02F9
:10059000E0E0F8E3099500C011E0A0E0B1E0E8E494
:1005A000F5E502C005900D92A83BB107D9F722E00E
:1005B000A8EBB1E001C01D92A73BB207E1F70E9492
:1005C0005F110C94322A1CCD982F962B9430B8F4DE
:1005D0004C30A8F450E09CE0699F400D511D11245F
:1005E00090E3899F400D511D1124FA01EE0FFF1F6A
:1005F000E455FF4F85919591282F822F089521E092
:1006000090E0FBCF81E0089581E00895FBCF08954D
:1006100081E0089581E00895FDCF0895089508953B
:10062000FDCF089508950895A6E0B0E0EAE1F3E073
:100630000C94AE2949835A839E833091BF018981EE
:100640009A81311117C03E81311589F0211579F059
:10065000F3D4182F682F89819A81CDD469817A814A
:10066000812F0E94280E2696E3E00C94CA29D4D448
:10067000182FF4CFE1D469817A81F3CFFC01262FC2
:10068000408151816281738184819581CDCFCF93E7
:10069000DF93EC0161E0F2DFBE01B6DF811529F0E6
:1006A00061E0CE01EBDFBE01B1DFDF91CF910895B4
:1006B0000F931F93CF93DF93EC0160E0DFDF8C019A
:1006C000BE01ADDFBE01C801ABDFDF91CF911F914D
:1006D0000F9108950F931F93CF93DF93EC0161E087
:1006E000CDDF8C018D8181110E940114BE01C801F2
:1006F0008FDF811106C080E0DF91CF911F910F91B4
:100700000895BE01C80188DF8115A9F3BE01C801A3
:100710000E94EB1D811579F3BE01C8010E94D5141A
:10072000811549F3BE01C8010E94271D811519F3E7
:10073000BE01C8010E949C188115E9F2BE01C801E2
:100740000E9471188115B9F2BE01C8010E9477118B
:10075000811589F2BE01C8010E94671D811559F2F9
:10076000BE01C8010E942B0F811529F2BE01C801EC
:100770000E943D0F811509F4BECFBE01C8010E9441
:10078000570FBACF91E001C0990F8A95EAF7892FE8
:1007900091C3CF93C82F81E00C2E01C0880F0A941B
:1007A000EAF70E94330C8C2FEDDFCF91089581E0A2
:1007B000089581E00895FBCF0895CF93C82F2BD3E0
:1007C0008C2FF7DF8C2FF7DF8FEF94E32CE0815035
:1007D00090402040E1F700C00000CF91089581E0F3
:1007E000ECDF0C943F2280E0E8DF0C9463221ADFF8
:1007F0000E943D2180E00E94B8141DD00C94DD12AF
:100800000E9412141AD00E94FA130DDF0C94412199
:1008100081E008950895CF93DF93D82FF9DFC82F93
:10082000811511F08D2FF6DF8C2FDF91CF91089578
:100830000895F1CF089580E0FCCF0E94C61FF9CF44
:10084000CF930E94C61FC82F8091BA018C1771F0F8
:10085000C093BA010E940F226093BB017093BC0148
:100860008093BD019093BE018C2FE3DFCF9108955B
:10087000ADE0B0E0EEE3F4E00C94AF29488759878F
:100880006A877B878C879D879111FFD61F8286E0C0
:10089000FE0138969E012F5F3F4FD90101900D92C6
:1008A0008A95E1F78D8181110CC029813A814B81B4
:1008B0005C816D817E818F8133D62D96E2E00C9430
:1008C000CB29CE010196E3DE8111EFCFF6CFFC01FB
:1008D0002481213019F480819181DAC30895611552
:1008E00021F00E94F8190C94AD1A0E94381AFBCF1F
:1008F000CF93C82F811581F08450813A78F48C2FE2
:100900000E946320811521F08C2F0E94A52026D7FC
:100910008C2F0E949F2022D7CF9108958C2F805E2C
:10092000883048F481E0C1FD84E0C0FD880FC2FD3D
:1009300082958CD6F0CF8C2F855A833030F48C2F53
:100940008452990B0E94F41FE7CFEC2FE85AEB3149
:1009500050F4F0E0EE0FFF1FEE5DFE4F80819181BD
:100960000E941B20D9CF8C2F8D5C8331A8F661E0CB
:100970008C2FB5DFD1CF811559F1982F9450913A32
:1009800018F40E94A520EAC6982F905E983050F483
:10099000982F81E091FD84E090FD880F92FD829573
:1009A0005BD6F1CF982F955A933020F480E090E0F9
:1009B0000C94F41F982F985A9B3120F480E090E01B
:1009C0000C941B20982F9D5C933110F460E087CF2E
:1009D00008951F93CF93DF93182FEB0189DF2097A2
:1009E00031F4812FC8DFDF91CF911F9108958FE9F6
:1009F0009FE00197F1F700C000002197F0CF60E57C
:100A000070E0893311F060E070E0E3CF811511F000
:100A10001DD6A4C60895811511F01ED69FC608954F
:100A2000A0E0B0E0E6E1F5E00C94A9296C01D62F36
:100A3000C72FFC011581068102950F70FCD5E82EA9
:100A40008115E9F0E12E1115D1F08C2F807F8034D3
:100A500061F08D2F805E8830E0F08C2F807E8032B8
:100A600021F4D230B0F00115A1F080916E0282FF26
:100A700010C082E08FD6DFD591E08927E82EEC2FD9
:100A8000E295EF70C03C78F5F0E0EC5CF54D0C942D
:100A90008829E12CF4CF0C2F0F70C03110F0029593
:100AA000007F111581F0011549F08D2F805E88308F
:100AB00010F0D11105C0802FC9D550D68D2F40C060
:100AC000802FD5D5FACF8D2F56DF011561F08D2FF0
:100AD000805E883010F0D11103C0802FBDD502C0D8
:100AE000802FCBD53BD6E11409F4AEC0A0D580FD54
:100AF000ABC0F601158295D5FFD1C6015DD191D568
:100B000004D2A2C08C2F8F70F82EC07FC03219F093
:100B1000F29480EFF822D13038F079F1111509F410
:100B200038C00115C9F0CACF80916E0282FD10C095
:100B3000111541F0F11419F08F2D88D50FD680E0F2
:100B4000D7DED1CF80E017DFF11469F28F2DC6CF49
:100B5000111551F0013018F48F2D58DFC4CF09F072
:100B6000C2CF8F2DA6D5BFCF0111BDCF8F2D53DFA3
:100B70008F2DAAD58F2D8FD5B6CF111521F0063028
:100B800008F0B1CFE9CF053008F0ADCF8F2D43DFAE
:100B9000AACF0115D9F3D93349F48FEF97EE23E0AB
:100BA000815090402040E1F700C000008D2FE3DE2F
:100BB0009ACF8C2F869586958370813060F009F0EE
:100BC00092CF8D2F9C2F9370111102C080E090E086
:100BD0000E941B2088CF8D2F9C2F9370111102C073
:100BE00080E090E00E94F41F7ECF612F8D2F77DE92
:100BF0007ACF8C2F837099F5111123C09D2F929578
:100C000096959770990F990F4D2F4F70092E01C02F
:100C1000440F0A94EAF78D2F8071D4FF07C02FE0AC
:100C200001C0220F9A95EAF7822F8095C695C69546
:100C3000C370842BC23079F0C33079F0C13049F0F1
:100C40003FD10E94C61FF5DDCDB7DEB7E8E00C94BA
:100C5000C52932D1F6CF38D1F4CF2CD1F2CF11152E
:100C600031F1C0FFEECF9D2F929596959770990F19
:100C7000990F4D2F4F70092E01C0440F0A94EAF7C7
:100C80008D2F8071D4FF07C02FE001C0220F9A95ED
:100C9000EAF7822F8095C695C695C370842BC23023
:100CA00059F0C33059F0C13029F047D1CACF823052
:100CB00040F2D9CF3ED1C5CF44D1C3CF0FD1C1CFA0
:100CC000CF70111529F08C2F17D18D2F9FDEB9CF42
:100CD0008D2FA1DE8C2F19D1B4CFD23F31F168F422
:100CE000D03FC1F0D13F89F0111509F43EC0011584
:100CF00009F438C08D2FFCDDA4CFD33FE1F0D43F01
:100D000099F780916E0282FD1EC08C2F8F71111594
:100D100011F30FC0111539F0053008F092CF8C2F68
:100D20008F71FED08ECF0630F8CF8C2F8F711111BE
:100D3000D2CFE2D086CF111521F08C2F8F71D5D074
:100D400080CFD1D07ECF111529F063E08C2F8F7129
:100D50000AD577CF81E01ED5023008F472CF82E049
:100D600019D56FCF8C2F8F71E4CF011571F0D93366
:100D700049F48FEF97EE23E0815090402040E1F757
:100D800000C000008D2FF7DD5CCF8C2F8F71A3CFBB
:100D90000F931F93CF93DF93EC01688179818D814D
:100DA00080D18C01D2D085D0B801CE0139DEDF915F
:100DB000CF911F910F910895CF93DF93EC018C8118
:100DC000811581F0CE0186DC81110FC034D48115EC
:100DD00049F08D81811531F080916E0282FF02C051
:100DE00082E0D8D4DF91CF910895CE01D1DFCE013A
:100DF0005FDCF8CF80E090E00E94F41F80E090E09C
:100E00000E941B2042D4AAD40E94C61A0C94AD1A88
:100E10000E94AB20EFCF28D4FBCF282F92959F7054
:100E2000963099F060F4925F9F70923030F4203FDA
:100E3000B1F038F481E0283E38F080E008959A5F00
:100E4000F3CF81E0243FC9F7089591E0813F09F095
:100E500090E081E0283E08F080E0892B089581E051
:100E60000895FC012481211521F08081918110D108
:100E7000D4CF80E00895A6E0B0E0E1E4F7E00C9480
:100E8000AF292696E2E00C94CB29A7E0B0E0EBE492
:100E9000F7E00C94AF292796E2E00C94CB29089553
:100EA000FECF0895FDCF0895FADFFCDF8093D301D4
:100EB00008950895F9CF08959091D301892BF4CF27
:100EC0009091D3018923F0CF9091D3018927ECCF62
:100ED000E6CF0895FDCF0895E2CF0895FDDFFADF54
:100EE0008093D201089580E0F9CF91E001C0990F7D
:100EF0008A95EAF7892FF2CF21E001C0220F8A9567
:100F0000EAF78091D201822BE9CF21E001C0220FC4
:100F10008A95EAF7822F80959091D2018923DECFBE
:100F200021E001C0220F8A95EAF78091D201822741
:100F3000D5CF9091D201892BD1CF9091D201892325
:100F4000CDCF9091D2018927C9CF0895CF93C1E029
:100F500061FDC4E060FDCC0F62FDC29593E0769523
:100F600067959A95E1F79B01220F331F260F371FD4
:100F7000420F531FFA0140E050E090E06191DF0121
:100F80009C01042E02C0369527950A94E2F7269517
:100F9000220B26272C2326272E934F5F5F4F4330AB
:100FA000510561F7CF910895A82FA77023E096957A
:100FB00087952A95E1F79C01220F331F820F931F1B
:100FC000680F791FFB0140E050E080E0219130E0A4
:100FD0000A2E02C0369527950A94E2F72170042E56
:100FE00001C0220F0A94EAF7822B4F5F5F4F433014
:100FF000510561F70895262F943068F48C3058F429
:10100000682F70E08CE0989F600D711D112440ECFA
:1010100051E0822F9BCF0895292F943058F48C30C3
:1010200048F490E060EC71E03CE0239F800D911D5E
:101030001124BACF80E00895CF92DF92FF920F93F0
:101040001F93CF93DF936C010091D2018091D30164
:10105000082BC3E0D0E010E0C8010C2E02C095952B
:1010600087950A94E2F780FD0CC02197A8F7F12C30
:101070008F2DDF91CF911F910F91FF90DF90CF9037
:101080000895FC2EB6018C2FEED5019771F3F0CFA9
:10109000CF93DF93EC01D0DFBE01E5D5DF91CF9197
:1010A00008951F93CF93DF93EB019091BF019115AA
:1010B00031F0CB01EDDFDF91CF911F9108958115C4
:1010C00051F0CB01B9DF182F682FCE0194DFBE019C
:1010D000812FC9D5F0CFCB019FDF182FF8CFE1E0EA
:1010E000F0E0DF0101C0AA0F6A95EAF76A2FDF017D
:1010F00001C0AA0F4A95EAF76A2B01C0EE0F2A95A4
:10110000EAF7962F9823961302C08E2B0895E09548
:101110008E230895242F462F682F8091D201DFDF80
:10112000DDCE0F931F930091D4018091D5018013E0
:1011300003C01F910F91089587E0089FF0011124CB
:10114000EA52FE4F20813181428153816481758151
:1011500086819BDE0F5F1F4F0770E7CF20910E0245
:1011600030910F02409110025091110260911202D1
:10117000709113028091140288CE80911402803104
:1011800070F480911302811551F0E091D401209107
:10119000D50130910F0240910E022E1301C0089527
:1011A000BF0187E0E89FF0011124DF01AA52BE4F82
:1011B00014968C911497811549F111968C91119781
:1011C000831324C08C91841321C015968C9115979C
:1011D00081111CC012968D919D91A0911002B09129
:1011E00011028A1B9B0B883C910580F480911402AC
:1011F0008F70806180931402E452FE4F80818F7063
:10120000806180838EE092E0D7DD8BCF6F5F7F4F70
:10121000FB01E770C2CFE091D4019091D501E913B1
:1012200002C080E008959F0157E0E59FF00111247E
:10123000EA52FE4F5181561306C05081581303C025
:101240005581541305C02F5F3F4FF901E770E7CF79
:1012500081E008958F929F92AF92BF92DF92EF92BA
:10126000FF920F931F93CF93DF93CDB7DEB72D97E8
:101270000FB6F894DEBF0FBECDBF8C0186E0F8013B
:10128000DE01189601900D928A95E1F7F801F5803C
:1012900084819EE0892E92E0992E90911202911104
:1012A00017C0811509F4EFC0F11409F42EC1C8016B
:1012B000D8DD811509F429C187E0F801D401019036
:1012C0000D928A95E1F7C40102DB57DF47DFDBC0EF
:1012D000E080A280B380D090130220911002309160
:1012E0001102A501421B530BD11409F4CFC0483C95
:1012F000510508F09EC0811509F4C5C090910F02F8
:10130000918080911402803108F065C0991226C046
:1013100090910E029E1122C0F11057C08F70806113
:10132000809314021BDF8EE092E046DD8091140270
:10133000F8018683F12C8F2D2D960FB6F894DEBF21
:101340000FBECDBFDF91CF911F910F91FF90EF9016
:10135000DF90BF90AF909F908F900895F11035C0AF
:1013600040E0692D8E2D57DF40E0692D8E2D53DF33
:10137000F82E8111DFCF888599858ADE292F229565
:101380002F70903450F49F70223078F0911591F0C6
:10139000F8019681903170F4CECF2A5F2F70223001
:1013A00070F0C80109DDFD2CC6CF911519F081152B
:1013B00009F4C1CF805E883008F4BDCFF2CF803F02
:1013C00008F4B9CF815F8330F7CF80911402816038
:1013D00080931402AFCF991207C090910E029E1114
:1013E00003C0F11409F473C0C8013BDD811509F491
:1013F0008CC0F11409F489C080911402803280F00D
:1014000020910E0230910F0229833A83AB82BC8275
:10141000909112029D831E828F83CE010196CCDCB7
:1014200087E0F801AEE0B2E001900D928A95E1F715
:101430004CCF90911402903188F4488559856A8583
:101440007B858C859D8517DD8EE092E0B5DCF4010F
:1014500087E011928A95E9F781DE6CCF811599F0CA
:1014600020910F0281812813BFCF80910E028E112F
:10147000BBCFF110B9CF9683C8019EDCF40187E0A1
:1014800011928A95E9F7FF24F39455CF483C510512
:1014900008F03EC08115B9F3F114B9F190910F0233
:1014A0008181981329C080910E028E1125C08091F0
:1014B000140280FD18C08031B0F08683807F803FA9
:1014C00039F08681982F907F905F8F70892B86836B
:1014D000C80172DC87E0F801AEE0B2E001900D9245
:1014E0008A95E1F7F3CE87E0F801AEE0B2E0019033
:1014F0000D928A95E1F7C7CFC801B3DC811190CF77
:1015000080911402816080931402C80155DCBBCF26
:10151000488559856A857B858C859D85ACDC97CF10
:10152000AEE0B0E0E6E9FAE00C94AE29288739870E
:101530004A875B876C877D878E87CE0108968ADE17
:101540006C85811599F0611539F0288539854A85B2
:101550005B857D858E8599DC8091D4019091D50144
:1015600089133DC02E96E3E00C94CA2987E09E01C2
:10157000285F3F4FF90127503109D90101900D92A1
:101580008A95E1F7611541F3A091D5018A2F90E08A
:101590008395877090E0AC012091D4012417150643
:1015A00091F097E09A9FD0011124AA52BE4F9E015C
:1015B0002F5F3F4FF90101900D929A95E1F740930B
:1015C000D501AFDDC9CF27DC1092D5011092D4012F
:1015D000EEE0F2E087E011928A95E9F7BDCF17E0DF
:1015E000189FC00111248A529E4F34DE811509F4E0
:1015F000B9CFE091D4011E9FF0011124EA52FE4FB1
:1016000020813181428153816481758186813DDCF5
:101610008091D4019091D501019687708093D40177
:101620009BCF80911D028695869586950895809121
:101630001D028770089590911D02977081E09111AD
:1016400001C080E0089580912902089590912902B7
:10165000982B9093290208958095982F80912902C4
:101660008923809329020895109229020895909168
:101670002802982B9093280208958095982F8091A6
:101680002802892380932802089510922802089541
:101690000895FECF089590911E02292F282329F046
:1016A0008095892380931E02F4CF08950895FECF7C
:1016B000089590911F02292F2823281721F0982B95
:1016C00090931F02F4CF089590911F02292F282391
:1016D00029F08095892380931F02E9CF0895809196
:1016E0001F02811521F010921F0280E0E0CF0895C3
:1016F0000F931F93CF93DF9380910001909101018D
:101700008C01C091290280912802C82B80911F0270
:10171000811529F0C82B0E944F208111E0DFF801CC
:10172000C083C0910001D091010148E050E065E123
:1017300072E0CE010E94D629892B59F088E0FE0183
:10174000A5E1B2E001900D928A95E1F7CE010E94E9
:10175000D51FDF91CF911F910F910895C9CF0895A3
:101760000895FECF089590916E0292FF0EC0982FBB
:10177000990F990F990F962B90931D02BDDB8091C5
:101780001D02869586958695ECCFB6CB10921D02EC
:1017900080E0E7CF90911D028095892380931D0200
:1017A000282F277059F4891749F090916E0292FF03
:1017B00005C0869586958695A8DBE8CF089590911B
:1017C0006E0292FB222720F9281749F080FB92F93C
:1017D00090936E028DE692E04AD082E0DBCF0895CE
:1017E00080916E02002482FF0394802DE8CF81E077
:1017F000E6CF80E0E4CF80E090E0BC011BC480E055
:1018000090E0BC0111D4F7CFA4E0B0E0EAE0FCE046
:101810000C94AF2966D371D31C82CE01049684D375
:1018200081E08093D3018AD3198284E18A83CE0137
:10183000019695D31B82CE010396A3D33DD60E9479
:10184000D41DDDDF2496E2E00C94CB29DDCF089592
:101850005AC3089547D381110C949B1D089559C311
:10186000089568C308956AC308956DC3089577C342
:1018700008957CC3089585C3089589C30895BBC3A3
:101880000895DEC30895A6E0B0E0E9E4FCE00C941E
:10189000AD290E9403228C0180912A0290912B0293
:1018A0008017910779F019821A820E940322BC01E5
:1018B00049815A8180E090E00E94380400932A0216
:1018C00010932B022696E4E00C94C9290E940F2263
:1018D000609330027093310280933202909333020E
:1018E00060932C0270932D0280932E0290932F020E
:1018F000089508950895FDCF08950895FEDFFBCF64
:101900000895FECF08950895FEDFFBCF89E29FE0A2
:10191000E9D4F0DFF3CF81E0089581E00895FBCFB3
:101920000895089508950895FCDFFCDFFCCF92DF51
:10193000811101C08BDF84E392E091DF8DE692E0BC
:1019400094DF0E940A168DDFB5DA8091D201C2CAF7
:101950000E94FA210E94DF1D2BD4E9DF0E94C41FE0
:101960000E9418040E9494155DD716D7CDCFA6E02B
:10197000B0E0EDEBFCE00C94A329CFDF81110EC0A9
:1019800082DF0E94C51F3ED70E9493150E94E71A6E
:101990000E9420042696EEE00C94BF2918D425E678
:1019A000822E22E0922E740110E0F701C080D180D7
:1019B000812F51D31F5F143009F450C022E0E20E92
:1019C000F11CC816D90689F38091340281FD4CD3ED
:1019D000A6DF682E10E0812F3ED37C01F401A19098
:1019E000B1904F018A159B0599F1A826BF2400E00C
:1019F00091E0C92ED12CC5018C219D21892B01F1AB
:101A000077247394C7018C219D21892B09F4712CB3
:101A1000611489F0602F812F0E94652181110BC014
:101A200009831A830E940322BC0149815A8181E003
:101A3000972D0E943804472D602F812F0E947C2112
:101A40000F5FCC0CDD1C0C30B1F6F401F292E29287
:101A50001F5F143009F0BFCF39DF93CFC816D90606
:101A600009F0B2CF8DCF0F931F93CF93DF93FDD0AB
:101A7000EC01D23508F050C0D03508F0C8C0C03EE7
:101A8000D10530F5CD3CD10508F09DC0C83AD1054F
:101A900078F4C53AD10508F093C0C130D105B1F151
:101AA000CE010497813A910588F1C0E0D0E02EC0C4
:101AB000CE01885A91094B97C0F7C85AD0E0CC0F95
:101AC000DD1FC85ADE4F0990D881C02DD4641EC0D6
:101AD000D034A8F4D03208F0ADC0C83ED105B0F083
:101AE000CE0191509F3108F78D2F62D1082F8C2F96
:101AF00090E0BBD0D02FDF71C82FD92B07C08C2F1F
:101B000090E0B3D0DF70C82FD92BD06ACE01DF911F
:101B1000CF911F910F910895C03882E5D807B8F58D
:101B2000C03682E5D80708F056C0C03482E5D80731
:101B3000C8F4C03282E5D80708F047C08C2F8695DC
:101B4000869520E2829FC0011124C37021E030E01D
:101B500002C0220F331FCA95E2F7E901C82BD92B27
:101B6000DD68D4CF8C2F86958695877020E2829F82
:101B7000C0011124C37021E030E002C0220F331FE6
:101B8000CA95E2F7E901C82BD92BDC68BFCFC03C6E
:101B900082E5D80750F48C2F8F71C03AD24580F57A
:101BA000982F84EF906AEC01B1CFCE01805C924512
:101BB000809708F07ACFDC2FDF71C0EFD06AA6CF14
:101BC000A497D064A3CFD065A1CF8C2F8F71D82FCD
:101BD000C1EFD06A9BCF8C2F86958695877020E2C7
:101BE000829FC0011124C37021E030E002C0220FA7
:101BF000331FCA95E2F7E901C82BD92BDA6886CFE3
:101C0000D7D0982F80E09F71EC01D0627FCF8C2FCE
:101C10008F71CED053E0CC0FDD1F5A95E1F7DF7006
:101C2000282F84FF04C090E1899F90011124C22FC6
:101C3000D0696CCF8D2F8F71BBD0082F8C2F90E087
:101C400014D0302F3F71282F392B3062E9015ECF3D
:101C5000462F743028F46C3018F4672F0C946E16ED
:101C600080E090E00895F4DFFECE803E9105D1F152
:101C7000C8F48133910509F481C048F48932910593
:101C800009F471C08A32910509F47FC0089589333F
:101C90009105E1F082389105C9F08533910509F489
:101CA0005DC00895843E9105D1F148F4823E9105CE
:101CB00031F1833E910541F181EE90E00895863E39
:101CC0009105C1F1873E9105F1F1089520916D02D2
:101CD000237009F064C020916E0223FF14C089E2D2
:101CE00090E0089520916D0220FD45C030916E0274
:101CF00030FF09C024FD24C083EE90E008952091B8
:101D00006D0222FDF7CF089520916D0222FD44C09F
:101D100030916E0230FD43C024FFF5CF11C02091F9
:101D20006E0221FFF0CF80916D0284FD09C087EE25
:101D300090E0089520916D0223FFE5CF24FFF7CFB7
:101D400080E090E0089520916D0223FD2BC030913A
:101D50006E0231FFE1CF84EE90E0089520916D0294
:101D600025FFD1CFBCCF20916D0225FD1EC0209153
:101D70006E0223FFC8CF89E390E0089520916D02A1
:101D800026FFC1CF8AE290E0089520916D0226FFE0
:101D9000BACF81E390E0089582EE90E0089580EE5E
:101DA00090E0089586EE90E0089585E390E0089530
:101DB00090916D0292FF10C041E0282F24712430D1
:101DC00009F040E031E0282F2871283009F030E098
:101DD000431711F02CE0822793FF10C041E0282F19
:101DE0002471243109F040E031E0282F2871283196
:101DF00009F030E0431711F02CE0822730916E0299
:101E000030FF10C051E0282F2171213009F050E03F
:101E100041E0282F2871283009F040E0541711F0D4
:101E200029E0822731FF10C041E0282F21712131A4
:101E300009F040E031E0282F2871283109F030E026
:101E4000431711F029E0822794FF02C083FD877EAB
:101E5000089580E00895CF939C01205E3245C1E053
:101E60002032310538F4FB01C581C11103C08F71E7
:101E70000E94C9038C2FCF9108959C01FB0185819D
:101E8000811599F02B359CE7390769F02C359CE7D3
:101E9000390721F02A353C4721F00895A1DC80E084
:101EA0000895A5DCFCCFA5DCFACF81E008959C0164
:101EB000FB018581811599F021309CE7390761F09C
:101EC00023309CE7390739F021153C4749F40E943B
:101ED000EF0380E00895BCDC0E94F303FACF81E0B9
:101EE0000895089580E090E00E94F0299C0181E02F
:101EF000233E3E4F09F080E0089563EE7EEF80E0E0
:101F000090E00C941E2A6FEF7FEF80E090E00C943D
:101F10001E2ACF93DF93EC0182E090E00E94E32938
:101F20008883DF91CF910895FC01608182E090E089
:101F30000C94042A83E090E00C94E329682F83E05A
:101F400090E00C94042ACF93DF93EC0184E090E0BE
:101F50000E94F02988839983DF91CF910895FC0135
:101F60006081718184E090E00C941E2ACF93DF930E
:101F7000EC0186E090E00E94E3298883DF91CF9115
:101F80000895FC01608186E090E00C94042A8F9211
:101F90009F92AF92BF92CF92DF92EF92FF920F93F8
:101FA000CF93DF93EC0188E090E00E94EB294B0196
:101FB0005C01688399828A83BB821C821D821E8297
:101FC0001F8283E290E00E94E3299401A5018882A8
:101FD0003983AA825B838C831D821E821F82DF91DC
:101FE000CF910F91FF90EF90DF90CF90BF90AF9087
:101FF0009F908F9008950F93CF93DF93EC014881CA
:1020000059816A817B8188E090E00E94162A6C8168
:10201000262F60E070E0CB01622F83E20E94042A49
:10202000DF91CF910F910895AB01BC018FE090E05B
:102030000C94162AAB01BC0183E190E00C94162AA3
:10204000682F8EE090E00C94042A0895FECF089546
:102050000895FECF0895E82FF0E0EE0FFF1FE95836
:10206000FD4F808191810895089580EA8A95F1F766
:10207000089500C00895F9CF0895F894E82FE295E7
:10208000EF70F0E041A18F7021E001C0220F8A952E
:10209000EAF7922F9095942391A392A1822F892BF6
:1020A00082A378940895CF93DF93CAE9D1E0899110
:1020B0008F3F09F0E2DF81E0CE39D807C1F7CEE8E3
:1020C000D1E089918F3F09F0D8DF81E0CA39D80784
:1020D000C1F7DF91CF910895AF92BF92DF92EF9257
:1020E000FF920F931F93CF93DF935C01D62EC62FE1
:1020F000D0E08E0106561E4FF80180818F3F09F413
:102100004BC0F894E82FE295EF70F0E091A18F704A
:1021100021E001C0220F8A95EAF7892F822B81A343
:1021200082A12095282322A37894A3DFEEE8F1E092
:1021300021E030E0E12CF12C41914F3F79F0A42FC8
:10214000A295AF70A05EB0E08C9190E04F7002C09D
:10215000959587954A95E2F780FF28C080E090E04A
:10216000E82AF92A220F331F81E0EA39F80721F71C
:10217000F80180818F3F09F080DF61E0E114F10414
:1021800009F460E08D2D77DFCC0FDD1FC5018C0FCA
:102190009D1FEC01E882F982DF91CF911F910F9191
:1021A000FF90EF90DF90BF90AF900895C901D8CF16
:1021B0007ADFE7E7F2E088E011928A95E9F7EFE647
:1021C000F2E088E011928A95E9F73CD03FCFA8E091
:1021D000B0E0EDEEF0E10C94AC29FE013196DF01A8
:1021E00088E01D928A95E9F710E00E2FFF2E612FEF
:1021F000802F9F2D71DF812F8F5F182F8430B9F7CB
:1022000048E050E0602F7F2D8FE692E00E94D629B3
:1022100041E0892B69F440E067E772E08FE692E0E5
:1022200012D0182F16DF812F2896E5E00C94C829CC
:1022300088E0E02FFF2DAFE6B2E001900D928A9585
:10224000E1F7EACF0895EF92FF920F931F93CF9398
:10225000DF938C017B01C42F411579F081E08093DD
:1022600037020E940322809335029093360280E069
:10227000CDB7DEB7E6E00C94C729D0913702D1156F
:10228000B1F380913502909136020E949421059716
:1022900070F348E050E0B801C7010E94D629892BAD
:1022A00041F088E0F801D70101900D928A95E1F79D
:1022B000CD2F109237028C2FDBCF59CB08950E947F
:1022C0009D210E94CB2322DB0E94E32341DB0E945D
:1022D000EC230E94EF23F1DF0E9405240E94B72225
:1022E00023DBF7CF8093B8019093B9010895CF9382
:1022F000DF93EC01FB018581811104C081E0DF9156
:10230000CF910895A0D98272FE01E052F847EB30D8
:10231000F105A0F7E05CF54D0C94882935D280E0FA
:10232000EECF811521F024D2FACF8115E1F314D23A
:10233000F6CF811521F0C0D1F2CF8115E1F3B2D1F2
:10234000EECF811521F0D2D1EACF8115E1F3C1D1D1
:10235000E6CF811521F0E4D1E2CF8115E1F3D3D1AD
:10236000DECF811521F0E1D0DACF8115E1F3CED0B7
:10237000D6CFA0E0B0E0EFEBF1E10C94A829062F56
:10238000B72EE82F71110EC0411521F0F0E0E45D89
:10239000FD4FE4916E2F7E2F8E2FCDB7DEB7E9E093
:1023A0000C94C429411521F0F0E0E45DFD4FE49167
:1023B00086E0089FE00111242FEF30E0CE01B90143
:1023C0000E943F29AB01C801880F991FF5E5F49FD2
:1023D000B001F59F700D1124861B682F660F680FE2
:1023E000C9018B199109E89FD001E99FB00D112413
:1023F0008B2FB69E60011124CD2CD12C89010C1994
:102400001D096801E09F7001E19FF00C1124433029
:10241000510551F18901061B1109B09E6001B19E61
:10242000D00C1124CD2CD12C2C193D09E29F800118
:10243000E39F100D1124712FCC3FD34050F4413055
:102440005105B1F04230510561F47E2FEB2F812F01
:1024500008C04430510579F04630510511F07B2F0A
:102460008F2D6E2FE82F98CF7F2D8E2FEB2FF9CF4A
:102470007E2FEF2DF6CF8E2FE12F7B2FF2CF41E075
:1024800078CFFDCF089580917F02843070F48091E1
:102490007F028370846080937F0280918202853BFB
:1024A00018F084EB809382020895883080F7F5CF8E
:1024B000EADF8FE792E0E3C985E080937F02109224
:1024C00080028FEF8093810284EB809382021092CE
:1024D00083028FE792E0D3C980917F0280FF03C01F
:1024E00086958695089580E0089580917F02817099
:1024F000089590918302933018F49F5F9093830224
:10250000811519F08FE792E0BAC9089581E0F1CF03
:1025100090918302911519F0915090938302811547
:1025200019F08FE792E0ABC9089581E0F1CF809177
:102530008302089580938302089580918002089514
:102540008091810208958091820208950F931F93D4
:10255000CF9380917F0280FF09C0E091A601F091A6
:10256000A7010995CF911F910F910895C091040182
:102570008091A2019091A3018C0180910501C8175F
:1025800060F7809102019C2F981B20E040E060E002
:10259000892F90E0F8010995CF5FEFCF80917F02FE
:1025A0008E7F80937F028FE792E069D9CFCF8091B1
:1025B0007F028E7F80937F02C9CF80913902811183
:1025C00009C081E08093390280917F0281708093FD
:1025D0003802EDCF0895EF92FF920F931F93CF93A0
:1025E000DF93D82F162F042F80917F0280FF0CC01D
:1025F000C09104018091A2019091A3017C0180917E
:102600000501C81730F0A2DFCDB7DEB7E6E00C94C5
:10261000C729809102019C2F981B202F412F6D2FDD
:10262000892F90E0F7010995CF5FE9CF0F931F93B2
:10263000CF93DF93D82F162FC42F022F80917F02C4
:1026400080FF23C0E82FE695E695F0E0E256FE4FC6
:10265000908190933B028C7F843061F4842F453BC2
:1026600008F084EB6D2F712F0CDF962F672F482F0A
:10267000892FB1DFD093800210938102C093820230
:10268000011519F08FE792E0FAD8DF91CF911F91F1
:102690000F910895EFE7F2E0282F43816281818155
:1026A000885FC4CF81E0F6CFEFE7F2E0282F4381C7
:1026B000628181818850BACF81E0F6CFEFE7F2E006
:1026C000628128E0620F08F46FEF282F4381818137
:1026D000ADCF81E0F3CFEFE7F2E0628128E0621B4B
:1026E00008F460E0282F43818181A0CF81E0F3CFFF
:1026F000EFE7F2E0438128E0420F08F44FEF282F84
:102700006281818193CF81E0F3CFEFE7F2E04381F3
:1027100028E0421B08F440E0282F6281818186CFA7
:1027200081E0F3CF20E082CF80917F0280FF10C054
:102730008370846080937F02611519F08FE792E0C7
:102740009ED8409182026091810280918002EACFFE
:102750000895682F81E0E8CF81E0FBCF682F90914A
:102760007F0296959695892F815009F481E0DCCF00
:1027700081E0F4CF61E0D8CF80917F0281608093C7
:102780007F0286958695F6CF80917F0280FF01C0FB
:1027900005CFF2CF60E0C8CF80913A0281111BC013
:1027A0008FE792E06AD880917F02843020F484DE43
:1027B0008FE792E062D867DEE091A001F091A1017D
:1027C000099580917F0280FF03C086958695E2DFA0
:1027D00081E080933A02089580917F028160809326
:1027E0007F0286958695D6CF80917F0280FF01C0BB
:1027F000DECEF2CF10923902809138028111ECCFF7
:1028000008950895089587E892E035C88DE2809391
:10281000870287E892E02FC8809187028695869587
:102820008695089587E892E024D88091870282FFF8
:10283000EDDF80918702803320F08770886280937B
:10284000870290918702892F817090FF04C0892FA1
:10285000869586958695D6C090918702892F869514
:1028600086958695983240F48F5F880F880F880F81
:102870009770892B80938702809187028160809373
:10288000870287E892E00E943B0C80918702869540
:1028900086958695B7C080918702883088F08850E9
:1028A0008093870291E0883008F490E0809187025D
:1028B00090FB80F98093870287E892E00E943B0CAE
:1028C000809187028695869586959CC08091870227
:1028D00080FD12C0816080938702813019F489E005
:1028E0008093870287E892E00E943B0C80918702E8
:1028F00086958695869586C008958091870280FF8B
:1029000009C08E7F8093870287E892E00E943B0C8B
:1029100080E078C008958091870280FF01C0EDCFEC
:10292000D5CF809187028695869586958F5F8F712A
:10293000863008F080E0880F880F880F909187021A
:102940009770892B8093870291E0883008F490E09B
:102950008091870290FB80F98093870287E892E05C
:102960000E943B0C809187028695869586954AC089
:10297000863008F085E0209187022770982F990F04
:10298000990F990F922B9093870221E0983008F4C9
:1029900020E09091870220FB90F99093870232C04B
:1029A000E7DF87E892E00C943B0CFB0125812115C1
:1029B00039F1833038E79307E9F068F4813038E77C
:1029C0009307B1F0823038E79307C1F0811598473B
:1029D00059F0822F0895843038E7930769F08530E5
:1029E0009847B9F79EDF02C085E0DADF20E0F1CF3B
:1029F00080E0FBCF50DFFACF2FDFF8CF8CDFF6CFB0
:102A000021E0E7CF0F931F93CF93DF93863080F5BC
:102A100081112FC090918000977F9093800020912A
:102A2000860030918700A82FB0E00E94212925E080
:102A300030E040E050E00E946629E901FA0180910F
:102A40008600909187006CE070E00E943F29621739
:102A5000730798F0C90169E070E00E943F29709304
:102A60008D0060938C00DF91CF911F910F9108959D
:102A700085E0909180009860D0CF80918600909101
:102A8000870020918600309187008901209186007F
:102A90003091870066E070E00E943F29C60FD71F83
:102AA000E11DF11D85E0CC0FDD1FEE1FFF1F8A9594
:102AB000D1F7C80166E070E00E943F2940E050E095
:102AC000260F371F411D511DBE01CF010E946629EF
:102AD000E901FA0180918600909187008C01B9018B
:102AE000CA010E9430299B01AC01D8010E9495299E
:102AF0009B01AC01BE01CF010E943029770FBB279B
:102B0000AA27881F991FAA1F20918600309187004D
:102B1000281739071A061B0620F480918600909129
:102B20008700BC019CCF0895279A2F988AE0809354
:102B3000800089E1809381008FEF9FEF9093870061
:102B4000809386006FCE0C94422008956A9A08956F
:102B5000FC01EE0FFF1FE80FF91FE857FD4F6183DF
:102B6000408322830895FF920F931F93CF93DF93A7
:102B7000182F062FF42EC0E0D0E02F2D402F612F0C
:102B8000CE01E6DF2196CA30D105B9F7CDB7DEB761
:102B9000E5E00C94C8293EB13B7F2EB124604FB7CD
:102BA000F89488E892E0FC010196508168E02EB923
:102BB000000000C057FF3EB9550F000000C000C024
:102BC00000C03EB900C06A9591F752E0863A950779
:102BD00051F74FBF8FE594E00197F1F700C0000077
:102BE00008950C94280C089580E035DA81700895DA
:102BF000EEDA8FEF96E721E0815090402040E1F738
:102C000000C00000E4DAF0DF811519F0EADF0C946F
:102C10003F220895EDCF0895A1E0B0E0E2E1F6E1B2
:102C20000C94AB297C01FC016081718182819381CC
:102C30008E010F5F1F4F40E050E09D019FD1F701D3
:102C400080819181A281B3810196A11DB11D8083F4
:102C50009183A283B38389812196E6E00C94C729EE
:102C600084E00895C7C00895EFC008951F93CF93DF
:102C7000DF93BED0D0E0C0E010C0412F6C2F8D2F6D
:102C80000E94E4029C01412F6C2F8D2FDDD01F5F2D
:102C90001C3099F7CF5FC43011F010E0EECFDF5F4A
:102CA000D43049F7DF91CF911F9108950F931F936F
:102CB0008A019B0140E050E0BC01CA01EBD01F91AA
:102CC0000F9108950F931F938A019B0140E050E0FC
:102CD000BC01CA0117D11F910F910895982F962B0F
:102CE000943018F44C3008F485C080E090E00895EA
:102CF00080E108953ED1CB0108950F931F938A017F
:102D00009B0140E050E0BC01CA0138D11F910F91F6
:102D100008950F931F938A019B0140E050E0BC018E
:102D2000CA0172D11F910F91089563D09FC16F9214
:102D30007F928F929F92BF92CF92DF92EF92FF92FB
:102D40000F931F93CF93DF9300D000D0CDB7DEB7A2
:102D5000B82E803118F50DD16150710981099109A2
:102D60007E012FEFE21AF20A870121E030E040E015
:102D700050E004D18981811111C0FBD03B014C018D
:102D8000E12CF12C6701B1101BC0C982DA82EB8201
:102D9000FC8240E0B8018CE096E187D50F900F905F
:102DA0000F900F90DF91CF911F910F91FF90EF90B7
:102DB000DF90CF90BF909F908F907F906F900895FD
:102DC000C301D401C816D906EA06FB0639F321E08F
:102DD00030E040E050E0B601C701D0D089819FEFDC
:102DE000C91AD90AE90AF90A8111EACFBA94CBCFF4
:102DF000089508950F931F93CF93DF93982F962BE9
:102E00009430F8F44C30E8F4C42FD0E0CC0FDD1F40
:102E100098E1699FC00DD11D112490E6899FC00DD6
:102E2000D11D1124CE0189960E94E329082FCE01DD
:102E30008A960E94E329902FDF91CF911F910F91E5
:102E4000089580E090E0F8CF1F93CF93DF93122F87
:102E5000282F262B2430D0F44C30C0F4C42FD0E0DF
:102E6000CC0FDD1F28E1629FC00DD11D112490E61B
:102E7000899FC00DD11D1124632FCE0189960E9418
:102E8000042A612FCE018A960E94042ADF91CF91F5
:102E90001F9108958F929F92AF92BF92CF92DF922F
:102EA000EF92FF920F931F936B017C012C0D3D1D40
:102EB0004E1D5F1D49015A01C814D904EA04FB04E0
:102EC00059F41F910F91FF90EF90DF90CF90BF903A
:102ED000AF909F908F90089580E8C81681E0D80643
:102EE000E104F10468F4C60189960E94E329F8011F
:102EF00081938F018FEFC81AD80AE80AF80ADCCF4D
:102F000080E0F5CF8F929F92AF92BF92CF92DF92E7
:102F1000EF92FF920F931F936B017C012C0D3D1DCF
:102F20004E1D5F1D49015A01C814D904EA04FB046F
:102F300059F41F910F91FF90EF90DF90CF90BF90C9
:102F4000AF909F908F90089580E8C81681E0D806D2
:102F5000E104F10430F4F8016081C60189960E9411
:102F6000042A0F5F1F4F8FEFC81AD80AE80AF80A21
:102F7000DBCF67E572E080E090E008954F925F92CA
:102F80006F927F928F929F92AF92BF92EF92FF9239
:102F90000F931F93CF93DF934B015C0129013A01FB
:102FA000E8017B0187E5E81A8EEFF80A00E010E0FF
:102FB000C201D301081719071A061B0678F0DF9122
:102FC000CF911F910F91FF90EF90BF90AF909F9086
:102FD0008F907F906F905F904F900895C401D501BE
:102FE000800F911FA11DB11D87359240A105B1052C
:102FF00048F4C701800F911F0E94E32989930F5F56
:103000001F4FD6CF80E0FACFA0E0B0E0EAE0F8E1D1
:103010000C94A3296B017C0149015A013801EB0191
:10302000C755DE4F8D01C401D501081719071A06CF
:103030001B0628F0CDB7DEB7EEE00C94BF29C60121
:10304000D701800F911FA11DB11D87359240A105A9
:10305000B10548F4F301E00FF11F6081CE01800F4C
:10306000911F0E94042A0F5F1F4FDDCFA0E1B0E047
:10307000ECE3F8E10C94A129FE013196DF0180E137
:103080001D928A95E9F706E210E097E5492E92E055
:10309000592E612C712C5201BA94A1949E2E8F2E20
:1030A0006201730181E148165104610471041CF04E
:1030B00080E1C82ED12CA601B501892D982D0E9442
:1030C000F529AC0CBD1C0D2C000C00084C185D083B
:1030D000600870080150104019F76096E0E10C9408
:1030E000BD29CF93DF93EB0186319C4719F50E94F0
:1030F000230B9D819115A1F08A7A91E0811101C085
:1031000090E090933D02811549F085E30E949F2055
:103110000E94AE0B80E0DF91CF91089589E2F6CF57
:1031200080913D02811521F085E30E94A520F0CF1A
:1031300089E2FBCF81E0EFCFCF93DF93EC01FB017E
:103140008581811509F4CBC09E01305723323105AA
:1031500008F0ABC08DE692E00E94350CFE01E15014
:10316000F047E232F10520F4E55BF54D0C94882937
:1031700080916D02816080936D0290C080916E029B
:10318000886080936E028AC080916D028260F3CF66
:1031900080916D028460EFCF80916D028860EBCFEB
:1031A00080916E028160EDCF80916E028260E9CFE6
:1031B00080916D028061DFCF80916D028062DBCFF4
:1031C00080916D028064D7CF0E940B0780916D02C1
:1031D0008068D1CF80916D028C60CDCF80916E02DE
:1031E0008360CFCF80916D028E7FC5CF80916E02BC
:1031F000877FC7CF80916D028D7FBDCF80916D029B
:103200008B7FB9CF80916D02877FB5CF80916E02A1
:103210008E7FB7CF80916E028D7FB3CF80916D028C
:103220008F7EA9CF80916D028F7DA5CF80916D0299
:103230008F7BA1CF0E940B0780916D028F779BCF70
:1032400080916D02837F97CF80916E028C7F99CFA2
:1032500090916D02892F8B7F92FF8460877F92FF10
:10326000886089CF80916E02982F909590FB80F9AD
:1032700090FB81F986CF90916D02892F8F7B96FF0D
:10328000806479CF0E940B0790916D02892F97FB84
:1032900087F9805870CF81E00E94410C8DE692E062
:1032A0000E94370C0E940B0780E0DF91CF910895B8
:1032B00080E0F2CF90916D02892F8F7E94FF806124
:1032C0005ACF90916D02892F8E7F90FF816053CFEE
:1032D00090916E02892F877F93FF886052CF81E0A3
:1032E000E4CF382F25EB3203C001112497FF04C02F
:1032F00080589109892F089580589F4FFBCF809166
:10330000440280FF0DC060910C0170E0660F771FD2
:103310006038710588F56115710581F1862F089572
:1033200081FF07C060910C0184E0689FB001112407
:10333000EFCF82FF04C060910C0188E0F6CF90913E
:1033400043029115B9F060910B0180910C01961721
:1033500028F098E0899FB0011124DACF899FC0013D
:10336000112423E0880F991F2A95E1F770E00E944D
:103370005329CECF68E0D2CF8FE7089581E008953A
:103380008091440280FF0CC06091080170E0759547
:103390006795759567956115710541F1862F0895BB
:1033A00081FF06C06091080170E075956795F3CFC5
:1033B0006091080182FD0BC0909142029115A1F02D
:1033C0006091070180910801961738F0682F70E02E
:1033D0006038710500F38FE70895899FC0011124BB
:1033E00070E00E945329F4CF61E0D8CF81E00895C6
:1033F000E82FED5CE33198F5F0E0E359F54D0C94DE
:1034000088297DDF819580934802089578DFFBCF7E
:1034100076DF819580934702089571DFFBCFB0DF9F
:10342000809349020895ACDF8195FACFA9DF819599
:1034300080934A020895A4DFFBCF815D990B21E0C0
:1034400001C0220F8A95EAF780914602822B809371
:103450004602089580914402816080934402089559
:10346000809144028260F9CF809144028460F5CF5C
:10347000409147028D3C59F48091480287FF0DC06E
:1034800010924802411559F41092430208C08E3C34
:1034900081F48091480218169CF3411581F08091C7
:1034A000490290914A02892B09F056C010924202BB
:1034B00008958F3C41F447FFF0CF1092470280916E
:1034C00048028115E0CF803D19F41416B4F3E5CF1E
:1034D00090914902893D29F41916FCF6109249028F
:1034E000DCCF8A3D19F497FFD8CFF8CF90914A02EC
:1034F0008B3D29F497FFD1CF10924A02CECF8C3D5D
:1035000019F41916CCF3C9CF982F915D983078F43F
:10351000815D990B21E001C0220F8A95EAF7822F85
:10352000809590914602892380934602B6CF8D3DC7
:1035300031F4809144028E7F80934402AECF8E3D61
:1035400021F4809144028D7FF7CF8F3D09F0A5CF04
:10355000809144028B7FF0CF089555D79C019091C4
:10356000470280914802982B21F02093400230932B
:1035700041029091490280914A02982B21F02093B8
:103580003E0230933F0285E492E01CC5E5E4F2E0A0
:1035900086E011928A95E9F7109243021092420256
:1035A000109244020895FC01828181110EC0838132
:1035B00081110BC08481811108C091E08581811146
:1035C00001C090E0892F8170089581E0FCCFA6E0D2
:1035D000B0E0EDEEFAE10C94AC2986E0E5E4F2E02F
:1035E0009E012F5F3F4FD90101900D928A95E1F71F
:1035F00010924702109248021092490210924A0219
:103600008B819C81892B022FF32E811581F0809173
:1036100040029091410288D6AC01909143029115ED
:10362000A1F180910D018417150608F43BC08D812E
:103630009E81892B89F080913E0290913F0274D641
:10364000AC0190914202911509F45AC08091090190
:103650008417150608F462C0602F7F2D85E492E080
:1036600084D5811104C085E492E09DDF811175DF6E
:1036700086E0E02FFF2DA5E4B2E001900D928A953F
:10368000E1F72696E5E00C94C82920910E018AE026
:10369000289F900111242417350748F69F5F9093C7
:1036A000430202C09F3FD1F71B81111551F027DE65
:1036B00091E011160CF09FEF899F802D11248093CB
:1036C00047021C81111551F01ADE91E011160CF021
:1036D0009FEF899F802D112480934802809147029B
:1036E000811509F4A4CF10914802111509F49FCF58
:1036F000F8DD80934702812FF4DD8093480297CF55
:1037000020910A018AE0289F90011124241735078F
:1037100008F0A2CF9F5F9093420202C09F3FD1F773
:103720001D81111551F02CDE91E011160CF09FEF68
:10373000899F802D1124809349028E81182F811535
:1037400051F01EDE91E011160CF09FEF899F802D45
:10375000112480934A0280914902811509F47CCF9B
:1037600090914A02192F911509F476CFBADD809312
:103770004902812FB6DD80934A026ECFA0E0B0E00F
:10378000E4ECFBE10C94A829E82FF0E0E45DFC4FA9
:103790009491B92E282F26952695269530E0F9018B
:1037A000E453FC4FE4908770F12C082E02C0F5948E
:1037B000E7940A94E2F7F901E454FC4FC490D12C49
:1037C000082E02C0D594C7940A94E2F724553C4FC2
:1037D000F901049110E002C0159507958A95E2F76A
:1037E000C62FD0E0E0FC25C0C0FE06C086EE0E94D9
:1037F0007804CE01009759F5BE018B2D0E94E90493
:10380000CE01009761F5C0FC32C0E0FE06C081EE3B
:103810000E94BB04CE010097C1F500FF05C08CE2F9
:103820000E94FF042097C9F5CDB7DEB7E9E00C94FC
:10383000C42981EE0E947804CE010097A9F2EFE935
:10384000FFE03197F1F700C000000197F6CFEFE9F4
:10385000FFE03197F1F700C000000197CBCFEFE90F
:10386000FFE03197F1F700C000000197CACF86EE64
:103870000E94BB04CE01009741F2EFE9FFE03197CF
:10388000F1F700C000000197F6CFEFE9FFE03197B4
:10389000F1F700C000000197BECF8FE99FE00197CC
:1038A000F1F700C000002197BDCFA0E0B0E0EBE54C
:1038B000FCE10C94A8298C017B01B42EC701F8010E
:1038C00009958130A0F009F058C0C701F8010995A9
:1038D000C82F813089F4C701F80109950E94FF04BF
:1038E0008B2D90E0009709F040C0C111E7CFCDB714
:1038F000DEB7E9E00C94C429823031F4C701F80145
:1039000009950E947804ECCF833031F4C701F801A7
:1039100009950E94BB04E4CF843011F7C701F80178
:103920000995C82FC12CD12CDAE08C2F8053990B2C
:103930008A30910568F0C114D10491F2EFE9FFE0FB
:103940003197F1F700C0000081E0C81AD108F3CF29
:10395000DC9D9001DD9D300D1124820F931F6C01C1
:10396000C701F8010995C82FE0CFEFE9FFE03197D3
:10397000F1F700C000000197B5CF6B2DFFDE9ECFA1
:103980000F931F93CF93DF93C42FD22FFC01858118
:103990008115C9F040934D0236D580934B02909328
:1039A0004C028C2F805E883048F481E0C1FD84E0B9
:1039B000C0FD880FC2FD82950E940605DF91CF9160
:1039C0001F910F91089510914D02141333C08091EF
:1039D0004B0290914C02A8D4883C910558F5CD2F0C
:1039E000C05E1D17C1F0812F805E883048F481E0F1
:1039F00011FD84E010FD880F12FD82950E940B05D9
:103A0000C83048F481E0D1FD84E0D0FD880FD2FDBC
:103A100082950E940605802F0E94FF0481E0D1FD5F
:103A200084E0D0FD880FD2FD8295C83038F60E9420
:103A30000B05C4CF8C2F805E883008F0BFCF81E0AB
:103A4000C1FD84E0C0FD880FC2FD8295F0CF0F93C9
:103A5000FC01CB01E851FC47E730F10588F5E0585F
:103A6000F54D0C94882906E221EE41EE6AE17CE7EF
:103A700087DF80E00F91089507E225EE45EE6BE1C8
:103A80007CE7F6CF06E221EE40EE68E17CE7F0CF7E
:103A900007E225EE44EE69E17CE7EACF06E221EE9B
:103AA00042EE6CE17CE7E4CF07E225EE46EE6DE105
:103AB0007CE7DECF08E221E045EE6EE17CE7D8CF7F
:103AC000FB018581811110924D0281E0D3CFCF930C
:103AD000DF9387372CE7920739F088379C47D1F07E
:103AE00081E0DF91CF910895FB018581811571F00F
:103AF00019D00E947C071CD0C82F17D0D82F12D005
:103B00004C2F6D2F0E948A0880E0EBCF0BD00E94D3
:103B10008507F1CFFB018581811511F006D0E9CF32
:103B200004D0F5CF8091110108958091100108957E
:103B300080910F010895A3E0B0E0E1EAFDE10C946B
:103B4000AF29AE014F5F5F4FCE010296BC010196D7
:103B5000CDD18B81863239F48A81823021F481E0A3
:103B60009981983109F080E081702396E2E00C940D
:103B7000CB29811521F048E162E086E2DDC14FEFFB
:103B80006FEF8FEFFBCF08950895CF92DF92EF9202
:103B9000FF926B017C01F8DFB601C701ECD1FF9009
:103BA000EF90DF90CF900895A0D180E0E2DF80E039
:103BB00090E0BC01EADF5AD8B8D881E0DACFE3DF81
:103BC000D1D1E2DFB8DF811101C0EECF08950E94AC
:103BD0008B140C94F4139C01FB018581811549F031
:103BE000A90157574038510528F4822FA0D880E00A
:103BF000089581E008952FEFFC012083089580E06F
:103C00000895CF93DF93EC018881813029F08230D1
:103C100059F0DF91CF9108950E940C1423E3829F05
:103C2000C00111248983F5CF1982F3CFFC012081D3
:103C3000213061F4818125E0829FC00111246FEF62
:103C400070E00E943F29862F0C94B8140895FC015F
:103C50009C012E5F3F4F9081983031F0993031F0C8
:103C6000973031F4C901E2CFC901CBCF0C940314D2
:103C70008FEF80830895CF93DF93EC0188818330A9
:103C800021F138F4813071F08230C1F0DF91CF91B1
:103C900008958430D9F70E949D1289830E94A01252
:103CA0008A83F4CF0E94A3122FEF829FC0011124B8
:103CB00064EB70E00E943F296983E8CF0E9475128F
:103CC00081110E946C128983E1CF0E949712FBCF71
:103CD000CF93DF93EC018881833081F138F4813018
:103CE00069F08230F9F0DF91CF9108958430D9F7EF
:103CF0000E94A312482F6A81898111C0898124EB17
:103D0000829FC00111246FEF70E00E943F29D62FDF
:103D10000E94A012C82F0E949D124D2F6C2F0E944E
:103D20009213E1CF8981811103C00E94D712DBCFAA
:103D30000E94EC1389810E94CA13D5CF89810E9409
:103D40009A12D1CFFC019C012E5F3F4F9081983099
:103D500031F0993031F0973031F4C901B9CFC90150
:103D60008ACF0C9458128FEF80830895FC01218133
:103D7000213009F46CCF223009F4E4CF3CCF1F93FB
:103D8000CF93DF93EC01162F3ADF811110C0E88149
:103D9000E150E331C0F4F0E0E957F54D0C94882987
:103DA00019828CE08A83612FCE010E94A315DF91D6
:103DB000CF911F91089589818330C9F038F4813003
:103DC00061F0823091F08FEF8883EDCF8430D9F7A6
:103DD0001A821B821C821D82E6CF21D30E948E296B
:103DE0006A837B838C839D83DECFBCD0F7CF8A81AF
:103DF00090E0FE0184309105B4F632961182128271
:103E00000196F8CF8981823029F08530E1F68A81E8
:103E1000DEDEC9CF6A817B818C819D810E948E29E3
:103E2000B4DEC1CF4B816A8189810E943216982706
:103E3000892798278C839D83B6CF2C813D8132279B
:103E4000232732274B816A8189810E943416ABCFA8
:103E50000E943616A8CF612FCE0188DFA4CF0E9422
:103E600078168983A0CF0E947A16982789279827E9
:103E700089839A8398CF6B8170E089819A81982792
:103E800089279827AE014C5F5F4F0E947D168BCF2C
:103E90006B8170E089819A81982789279827AE01E4
:103EA0004C5F5F4F0E9489167ECF0E9495167BCF94
:103EB0000E943016D6CF6B8170E089819A81982755
:103EC00089279827AE014C5F5F4F0E9456166BCF33
:103ED0006B8170E089819A81982789279827AE01A4
:103EE0004C5F5F4F0E9462165ECF0895EF92FF9283
:103EF0000F931F93CF93DF937C018B01EA01892BF2
:103F000031F085E290E00E94E329F70180830115FA
:103F1000110531F086E290E00E94E329F8018083E8
:103F2000209729F087E290E00E94E3298883CDB7AB
:103F3000DEB7E6E00C94C729CF93DF93C62FD42FCA
:103F4000682F85E290E00E94042A6C2F86E290E0C0
:103F50000E94042A6D2F87E290E00E94042ADF91DC
:103F6000CF91089588E290E00E94E329682F70E0E5
:103F700080E090E0089588E290E00C94042A809319
:103F8000520290935302089508950895E0915202C9
:103F9000F0915302309739F00190F081E02D309785
:103FA00011F00995089580E00895E0915202F09192
:103FB0005302309731F00280F381E02D309709F001
:103FC00009950895E0915202F0915302309759F00B
:103FD00026813781232B39F022E0DC012C930680E7
:103FE000F781E02D09950895A3E0B0E0EAEFFFE145
:103FF0000C94AF29209150023091510228173907B3
:10400000B1F08093500290935102E0915202F091EE
:104010005302309761F00084F185E02D309739F03C
:1040200023E029838A839B83CE01019609952396F9
:10403000E2E00C94CB29A3E0B0E0E1E2F0E20C94E2
:10404000AF2920914E0230914F0228173907B1F065
:1040500080934E0290934F02E0915202F0915302EE
:10406000309761F00084F185E02D309739F024E03D
:1040700029838A839B83CE01019609952396E2E0EA
:104080000C94CB29E0915202F0915302309731F019
:104090000284F385E02D309709F009950895409149
:1040A0000001509101019A012E5F3F4F485F5F4F21
:1040B00080E0F90190812F5F3F4F91118F5F421790
:1040C0005307B9F70895811591F0209100013091BF
:1040D0000101F9013296285F3F4F9081981731F026
:1040E0003196E217F307C9F780E0089581E008955B
:1040F0009C01FC01329680E09FEF4081461759F009
:1041000031969F3F19F4411101C0982F8F5F86307F
:10411000A1F79F3F09F40895290F311D97FD3A95A6
:10412000F90162830895FC013296089621912613C5
:1041300002C0DF011E92E817F907C1F70895682F42
:104140008091000190910101D3CF682F80910001EF
:1041500090910101E8CFE0910001F09101013296C8
:1041600086E011928A95E9F70895DC01FB0111962A
:104170009C9111978181981322C012968C9112976D
:10418000811519F0928189131AC013968C91139797
:10419000811519F09381891312C015968C9115978A
:1041A000811519F0958189130AC014969C91911577
:1041B00021F081E02481291303C080E001C081E067
:1041C000817008950895FECF08958F5F8093150143
:1041D0006091120170911301809114019091150169
:1041E000F2CF83E080931501609112017091130169
:1041F0008091140190911501E6CFE7CF089581E0F9
:104200008093150160911201709113018091140146
:1042100090911501D8CFF3CF089591E0811101C09D
:1042200090E09093140160911201709113018091BC
:10423000140190911501C7CF8091140108958093C6
:1042400013016091120170911301809114019091FA
:104250001501B9CF809113010895809312016091E7
:104260001201709113018091140190911501ABCF4F
:1042700080911201089508950895FECF089508953C
:104280000895F9CF08950F931F93CF93DF93F7DF2E
:104290000E94E710F5DF04E512E0C0E0D0E08C2FCB
:1042A0000E942B109C01F801819331938F0191E0C2
:1042B000232B09F490E0D92BCF5FC43081F78D2FE9
:1042C000DF91CF911F910F910895E82FF0E0EE0F4D
:1042D000FF1FEC5AFD4F81E090E002C0880F991F4C
:1042E0006A95E2F7BC01808191816823792381E09E
:1042F000672B09F480E00895411115C0E82FF0E024
:10430000EE0FFF1FEC5AFD4F81E090E002C0880FD6
:10431000991F6A95E2F780959095208131818223DB
:104320009323808391830895CF93DF93EC016BD027
:104330008C1B9D0BDF91CF91089585B7806885BF59
:1043400085B7806885BF08951F921FB61F921124FC
:104350008F939F93AF93BF9380915C02811113C0A1
:104360008091A6029091A702A091A802B091A90203
:104370004196A11DB11D8093A6029093A702A09320
:10438000A802B093A902BF91AF919F918F911F9006
:104390001FBE1F9018958091AE02843031F10E94AB
:1043A000F70310925C0288E190E020E40FB6F894E5
:1043B000A895809360000FBE2093600083B7817F33
:1043C000846083BF83B7816083BF7894889583B707
:1043D0008E7F83BF0FB6F894A895809160008861A6
:1043E00080936000109260000FBE08950E940B073A
:1043F0000C94000482E084BD93E095BD9AEF97BDD4
:1044000080936E0008952FB7F8948091A602909142
:10441000A702A091A802B091A9022FBF08952FB7BB
:10442000F8946091A6027091A7028091A8029091E1
:10443000A9022FBF089578941F921FB61F921124CE
:104440008F939F93AF93BF938091A6029091A70201
:10445000A091A802B091A9020196A11DB11D80935F
:10446000A6029093A702A093A802B093A902BF91BD
:10447000AF919F918F911F901FBE1F90189581E063
:104480008093E00080E28093D8001092C9008FE111
:104490009EE40197F1F700C00000A7E0B0EBCD016A
:1044A0008093B7029093B802A093B902B093BA0276
:1044B00088E19CE00FB6F894A895809360000FBE49
:1044C00090936000FFCF88E19CE00FB6F894A89528
:1044D000809360000FBE90936000FFCF08959B0112
:1044E000BA019091AE029430D9F48F708093E900B4
:1044F0009FEF8091E80085FD06C085ED8A95F1F774
:1045000000009150B1F78091E80085FF09C040E0BC
:1045100050E0C901EED18091E8008E778093E800E9
:104520000895603229F440E250E0BC0182E0D7CF28
:10453000089543E050E0BC0184E0D1CF46E050E074
:10454000BC0184E0CCCFCF93DF93EC0175DE48E073
:1045500050E0BE0181E0C3DF88E0FE01ADE5B2E0DE
:1045600001900D928A95E1F7DF91CF910895A0E235
:10457000B0E0ECEBF2E2F3C68091AE028430F1F4ED
:1045800083E08093E9008091E80082FF17C080916A
:10459000E80090E085FF07C040E050E0BD01CE019B
:1045A0000196F4D191E08091E8008B778093E80048
:1045B000911521F060E2CE010196E1DBA096E2E0E8
:1045C000EAC68091AD02811107C06ED3BED380913F
:1045D000E20084608093E20008951092AD02089595
:1045E0000EDE81E01ACE6091AA0281E0611101C065
:1045F00080E0F7CD9091AE0281E0943009F080E048
:104600006091AA02FACD42E061EC81E0C9D242E2B7
:1046100061EC84E0C5D242E261EC82E0C1D242E2C8
:1046200060EC83E0BDD29091AE0281E0943009F05D
:1046300080E06091AA02C9CD8091B002893081F1F9
:1046400048F4823009F497C0833009F458C08130AF
:1046500041F008958A3009F481C08B3009F469C0B3
:1046600008958091AF02813A09F048C08091E80036
:10467000877F8093E8008091B3029091B402892BE8
:1046800059F060E080E090E070E0CDD18091E800EA
:104690008B778093E800089568E08DE592E0F4CF91
:1046A0008091AF02813251F58091B3029091B402B2
:1046B0008D7F892B19F58091E800877F8093E80032
:1046C0008091E80082FF16C02091F3008091F200F3
:1046D000922F029731F48091F100813011F08630F1
:1046E00019F48091F100ABDD8091E8008B77809325
:1046F000E8008AC28091AE028111E2CF08958091D4
:10470000AF02813AD9F78091B3029091B402892B1C
:10471000A9F78091E800877F8093E8008091E80006
:1047200080FFFCCF89DD8093F1008091E8008E77D7
:10473000DECF8091AF02813209F78091B302909170
:10474000B402892BD9F68091E800877F8093E80036
:104750005BD28091B10261DD0C940B078091AF02B6
:10476000813261F68091E800877F8093E8004CD227
:104770008091B20272CD8091AF02813A09F0BECF32
:104780008091E800877F8093E8008091E80080FFB7
:10479000FCCF6EDDC8CF84B7877F84BF0FB6F89497
:1047A000A8958091600088618093600010926000FD
:1047B0000FBE80E890E00FB6F8948093610090936C
:1047C00061000FBE28CD70D2C0D2E2EEF0E0808151
:1047D0008460808378941CC586E191E0D0CB809181
:1047E000AE02853029F48091AE02853011F0FECD05
:1047F0000895D1DD48DD8115B1F38091AC028115BA
:1048000091F361D00E940B07EECF08959A01409179
:10481000B5025091B60200C0492F50E04330510517
:10482000D1F078F44130510509F448C042305105C7
:1048300071F48BE590E046E054E0F9014083518348
:10484000089541325105E9F04232510539F180E0D5
:1048500090E040E0F2CF482F50E0813061F04230EC
:10486000510561F0E2E0F4E04115510581F78491D2
:1048700090E0AF01E2CFEAEEF3E0F9CFECEDF3E048
:10488000F6CF6330710518F7660F771FFB01EF5401
:10489000FE4F4081518189E090E0CFCF63307105B8
:1048A000B0F6FB01EE0FFF1FE555FE4F4081518131
:1048B00068557E4FFB01808190E0BFCF82E190E0A0
:1048C00041E654E0BACF80E189BD82E189BD09B4F7
:1048D00000FEFDCF8091D8008F7D8093D80080911D
:1048E000E00082608093E0008091E00081FDFCCFD9
:1048F0000895AF92BF92CF92DF92FF920F931F93D2
:10490000CF93DF936C01EB018A019DD1F82E8111C9
:1049100023C00115110539F0F80180819181C81B70
:10492000D90BC80ED91EA12CB12C2097A9F08091CB
:10493000E80085FD21C08091E8008E778093E80033
:1049400001151105A1F0F801808191818A0D9B1D4F
:104950008083918385E0F82E8F2DDF91CF911F9179
:104960000F91FF90DF90CF90BF90AF9008956BD1E3
:104970008115E9F2F82EF0CFF60181916F01809355
:10498000F10021978FEFA81AB80ACFCFAF92BF924C
:10499000CF92DF92FF920F931F93CF93DF936C011F
:1049A000EB018A0150D1F82E811123C001151105A8
:1049B00039F0F80180819181C81BD90BC80ED91E2E
:1049C000A12CB12C2097A9F08091E80085FD21C091
:1049D0008091E8008B778093E80001151105A1F024
:1049E000F801808191818A0D9B1D8083918385E0F0
:1049F000F82E8F2DDF91CF911F910F91FF90DF90B7
:104A0000CF90BF90AF9008951ED18115E9F2F82E96
:104A1000F0CF8091F100F60181936F0121978FEF24
:104A2000A81AB80ACFCFFC012091B5023091B60286
:104A30002617370720F06115710569F09B0190E09A
:104A40002115310571F491110CC08091E80082FFAD
:104A500038C080E008959091E8009E779093E80038
:104A6000EDCF8091AE028115C1F18530C1F1809109
:104A7000E80083FD30C08091E80082FDE6CF8091A0
:104A8000E80080FFDDCF8091F3004091F200582FC5
:104A90002115310519F04830510558F091E04830A2
:104AA000510509F090E04091E8004E774093E8000E
:104AB000C7CF81918093F100215031094F5F5F4F43
:104AC000E7CF8091AE02811541F0853041F08091B1
:104AD000E80083FFBACF81E0089582E0089583E083
:104AE0000895FC012091B5023091B60226173707D0
:104AF00020F06115710569F09B0190E021153105E9
:104B000071F491110CC08091E80082FF39C080E0FF
:104B100008958091E8008E778093E800EDCF809132
:104B2000AE028115C9F18530C9F18091E80083FD9D
:104B300031C08091E80082FDE6CF8091E80080FFDF
:104B4000DDCF8091F3004091F200582F21153105FF
:104B500019F04830510558F091E04830510509F0FE
:104B600090E08091E8008E778093E800C7CF849131
:104B70008093F1003196215031094F5F5F4FE6CFAE
:104B80008091AE02811541F0853041F08091E800BE
:104B900083FFB9CF81E0089582E0089583E008950E
:104BA000982F973028F08F708093E90081E0089566
:104BB0009093E900242F762F50E0981731F07091F0
:104BC000EC002091ED005091F00021FD02C09F5FAC
:104BD000E8CF3091EB003E7F3093EB003091ED0059
:104BE0003D7F3093ED003091EB0031603093EB006E
:104BF0007093EC002093ED005093F0002091EE00B4
:104C000027FDE5CF80E008958091AF0287FF13C0B4
:104C10008091E80082FF06C08091E8008B77809346
:104C2000E80008958091AE028111F2CF089580913D
:104C3000AE028115D9F38091E80080FFF8CF809112
:104C4000E8008E77ECCF2091E4003091E50095E606
:104C5000A9012091EC00822F817020FF06C0809175
:104C6000E80080FF06C080E008952091E80022FD62
:104C70001AC08091AE02811589F0853089F080914B
:104C8000EB0085FD0FC02091E4003091E500421754
:104C90005307F9F29150E1F684E0089582E0089517
:104CA00083E0089581E008955FD066D0E0EEF0E003
:104CB000808181608083E8ED80818F77808319BC5B
:104CC000A7EDB0E08C918E7F8C9380818F7E808366
:104CD0001092AD020895CF93DF9346D04DD0C8ED2A
:104CE000D0E088818F7788838881806888838881F5
:104CF0008F7D888319BC1092AE021092AA02109286
:104D0000AC021092AB02E0EEF0E080818B7F8083FA
:104D100088818160888342E060E080E041DFE1EEED
:104D2000F0E080818E7F8083E2EE808181608083ED
:104D3000808188608083E0EE80818E7F808388819F
:104D400080618883DF91CF910895E8EDF0E0808164
:104D50008F7E8083E7ED80818160808384E082BFE5
:104D600081E08093AD02B7CFE8EDF0E080818E7FE7
:104D700080831092E20008951092DA001092E10010
:104D800008951F920F920FB60F9211242F933F9305
:104D90004F935F936F937F938F939F93AF93BF9343
:104DA000EF93FF938091E10082FF0AC08091E200BF
:104DB00082FF06C08091E1008B7F8093E10027D2C3
:104DC0008091DA0080FF18C08091D80080FF14C065
:104DD0008091DA008E7F8093DA008091D90080FF85
:104DE0008FC080E189BD82E189BD09B400FEFDCF9D
:104DF00081E08093AE02E5DB8091E10080FF18C086
:104E00008091E20080FF14C08091E2008E7F809349
:104E1000E2008091E20080618093E2008091D800FE
:104E200080628093D80019BC85E08093AE02DBDB02
:104E30008091E10084FF28C08091E20084FF24C0BB
:104E400080E189BD82E189BD09B400FEFDCF80917A
:104E5000D8008F7D8093D8008091E1008F7E809371
:104E6000E1008091E2008F7E8093E2008091E20079
:104E700081608093E2008091AA02811509F445C007
:104E800084E08093AE02B6DB8091E10083FF27C00F
:104E90008091E20083FF23C08091E100877F8093AF
:104EA000E10082E08093AE021092AA028091E100BC
:104EB0008E7F8093E1008091E2008E7F8093E200FC
:104EC0008091E20080618093E20042E060E080E057
:104ED00067DE8091F00088608093F00081DBFF91B5
:104EE000EF91BF91AF919F918F917F916F915F9162
:104EF0004F913F912F910F900FBE0F901F901895DB
:104F000019BC1092AE0269DB77CF8091E30087FF76
:104F100002C083E0B6CF81E0B4CF1F920F920FB6EC
:104F20000F9211241F932F933F934F935F936F938F
:104F30007F938F939F93AF93BF93CF93DF93EF9321
:104F4000FF93E9EEF0E080811091EC008F7010FB90
:104F5000112717F9182B1082C0EFD0E08881877FC6
:104F6000888378941CD0E9EEF0E010828881886014
:104F700088831F701083FF91EF91DF91CF91BF91D4
:104F8000AF919F918F917F916F915F914F913F91E1
:104F90002F911F910F900FBE0F901F901895AAE2AE
:104FA000B0E0E4EDF7E2DAC18FEA92E0FC010196AD
:104FB0002091F100208322E0873B9207B9F73CDB88
:104FC0008091E80083FF37C08091AF029091B002DA
:104FD0009A3088F5E92FF0E0E656F54D99C1803812
:104FE00089F0823841F58091B3028F70873018F5CF
:104FF0008093E9008091EB0085FB882780F910926F
:10500000E90006C08091AC02880F9091AB02892B19
:105010009091E800977F9093E8008093F1001092C0
:10502000F1008091E8008E7722C0811115C0809137
:10503000B102813001F18091E80083FF0AC08091C4
:10504000E800877F8093E8008091EB008062809386
:10505000EB00AA96E3E09EC1823069F78091B1022D
:10506000811579F01092E9008091E800877F8093A4
:10507000E800CADDE0CF933009F080E08093AC0215
:10508000F1CF8091B3028F70282F2150263098F6EF
:105090008093E9002091EB0020FFE4CF933031F4BE
:1050A0008091EB0080628093EB00DCCF9091EB006D
:1050B00090619093EB0021E001C0220F8A95EAF7FE
:1050C0002093EA001092EA008091EB008860EBCF19
:1050D0008111B1CF8091B1028F77182F8091E300B9
:1050E0008078812B8093E3008091E800877F809314
:1050F000E8008ADD8091E80080FFFCCF8091E3002A
:1051000080688093E30083E0111101C082E0809306
:10511000AE0291CF8058823008F08DCF8091B102DD
:105120009091B2028C3D23E0920789F583E08A8357
:105130008AE289834FB7F894DE01139620E03EE0BF
:1051400051E2E32FF0E050935700849120FF03C019
:1051500082958F703F5F8F708A30B8F0895C8D9335
:105160001D922F5F243169F74FBF8091E800877F40
:105170008093E8006AE270E0CE01019654DC8091F1
:10518000E8008B778093E80056CF805DE8CF609190
:10519000B3027091B402AE014F5F5F4F37DBBC01C9
:1051A000892B09F448CF9091E800977F9093E8000D
:1051B00089819A8196DCE3CF803809F03CCF8091D9
:1051C000E800877F8093E8008091AA028093F10035
:1051D00028CF811130CF9091B102923008F02BCFBF
:1051E0008091E800877F8093E8009093AA020CDD0D
:1051F0008091AA02811529F084E08093AE0203DA3F
:105200001ACF8091E30087FDF7CF81E0F6CF0895B4
:10521000CF938091AE02811591F08091E900C09109
:10522000EC008F70C0FBCC27C7F9C82B1092E900A7
:105230008091E80083FDB3DECF70C093E900CF9189
:105240000895A29FB001B39FC001A39F700D811D5F
:105250001124911DB29F700D811D1124911D08957F
:10526000DB018F939F9361D0BF91AF91A29F800D7F
:10527000911DA39F900DB29F900D11240895AA1B1C
:10528000BB1B51E107C0AA1FBB1FA617B70710F031
:10529000A61BB70B881F991F5A95A9F78095909563
:1052A000BC01CD01089597FB072E16F4009406D09B
:1052B00077FD08D0E4DF07FC05D03EF4909581959A
:1052C0009F4F0895709561957F4F0895A1E21A2E22
:1052D000AA1BBB1BFD010DC0AA1FBB1FEE1FFF1F9A
:1052E000A217B307E407F50720F0A21BB30BE40BEA
:1052F000F50B661F771F881F991F1A9469F7609531
:105300007095809590959B01AC01BD01CF010895EA
:10531000EE0FFF1F0590F491E02D09946927962761
:10532000692778278727782708958BDFA59F900D19
:10533000B49F900DA49F800D911D112408952F926C
:105340003F924F925F926F927F928F929F92AF9215
:10535000BF92CF92DF92EF92FF920F931F93CF9362
:10536000DF93CDB7DEB7CA1BDB0B0FB6F894DEBFF9
:105370000FBECDBF09942A88398848885F846E841F
:105380007D848C849B84AA84B984C884DF80EE8069
:10539000FD800C811B81AA81B981CE0FD11D0FB672
:1053A000F894DEBF0FBECDBFED010895FB01DC0117
:1053B00004C08D910190801921F441505040C8F7EC
:1053C000881B990B0895F999FECF92BD81BDF89A7B
:1053D000992780B50895A6E1B0E044E050E034C0DC
:1053E000A8E1B0E042E050E02FC0DC01A40FB51FFF
:1053F0004150504040F0CB01840F951F2E9105D0B5
:1054000041505040D8F70895262FF999FECF92BD0C
:1054100081BDF89A019700B4021639F01FBA20BD79
:105420000FB6F894FA9AF99A0FBE08950396272FAB
:10543000ECDFEADF252FE9DF242FE7CF0196272FC6
:10544000E4DFE2CFDC01CB01FC01F999FECF06C01D
:10545000F2BDE1BDF89A319600B40D924150504032
:10546000B8F70895F894FFCF4B054B0582058205E8
:10547000D905F50573057305F90560066D066D061A
:105480008E119111951199119D11A111A511A911BB
:10549000AD11B111B511F2186119FA18C418C81874
:1054A000FE18CC1802190E19D8185A19DC1812193E
:1054B000E01816193B19E4181A194219EA182019AC
:1054C0002819D0180619D4180A19EE1824193219F7
:1054D0004B195819BE18F6186819011A061A081A35
:1054E0000D1A1D1A1D1A1D1A1D1A1D1A1D1A1D1A14
:1054F0001D1A0F1A131A161A1B1A2A1A301A341ADE
:10550000421D481D331D3C1D4E1D541D5A1DD01EED
:10551000DB1E021F121F1D1F281F2B1F2B1F2B1FDF
:10552000E31EE31E2F1F331F3B1F481F551F581F2D
:105530005B1F681FEF2715281B2815281B286828C4
:085540008A281B28DC28E92859
:105548002002000A000A0A280850011E0A14010352
:105558000201000001002A21A3226E229E22992224
:105568009122E200E900EA00B500B600B700CD00DC
:105578008301CC008A0192019401210223022402B2
:105588002502260227022A02B300B4006F00700029
:105598009F01CB019F02A002E200E900EA00B500EA
:1055A800B600B700CD008301CC008A0192019401B6
:1055B8002102230224022502260227022A02B3001E
:1055C800B4006F0070009F01CB019F02A00230F56C
:1055D800F6F7676636353497969491F4F1F0000142
:1055E800A615A815B315CB1544227B100573049591
:0855F800041804310451040001
:00000001FF
